{
  "contractName": "TrueShot",
  "abi": [
    {
      "inputs": [],
      "stateMutability": "nonpayable",
      "type": "constructor"
    },
    {
      "anonymous": false,
      "inputs": [
        {
          "indexed": true,
          "internalType": "address",
          "name": "owner",
          "type": "address"
        },
        {
          "indexed": true,
          "internalType": "address",
          "name": "approved",
          "type": "address"
        },
        {
          "indexed": true,
          "internalType": "uint256",
          "name": "tokenId",
          "type": "uint256"
        }
      ],
      "name": "Approval",
      "type": "event"
    },
    {
      "anonymous": false,
      "inputs": [
        {
          "indexed": true,
          "internalType": "address",
          "name": "owner",
          "type": "address"
        },
        {
          "indexed": true,
          "internalType": "address",
          "name": "operator",
          "type": "address"
        },
        {
          "indexed": false,
          "internalType": "bool",
          "name": "approved",
          "type": "bool"
        }
      ],
      "name": "ApprovalForAll",
      "type": "event"
    },
    {
      "anonymous": false,
      "inputs": [
        {
          "indexed": true,
          "internalType": "address",
          "name": "previousOwner",
          "type": "address"
        },
        {
          "indexed": true,
          "internalType": "address",
          "name": "newOwner",
          "type": "address"
        }
      ],
      "name": "OwnershipTransferred",
      "type": "event"
    },
    {
      "anonymous": false,
      "inputs": [
        {
          "indexed": true,
          "internalType": "address",
          "name": "from",
          "type": "address"
        },
        {
          "indexed": true,
          "internalType": "address",
          "name": "to",
          "type": "address"
        },
        {
          "indexed": true,
          "internalType": "uint256",
          "name": "tokenId",
          "type": "uint256"
        }
      ],
      "name": "Transfer",
      "type": "event"
    },
    {
      "inputs": [
        {
          "internalType": "address",
          "name": "to",
          "type": "address"
        },
        {
          "internalType": "uint256",
          "name": "tokenId",
          "type": "uint256"
        }
      ],
      "name": "approve",
      "outputs": [],
      "stateMutability": "nonpayable",
      "type": "function"
    },
    {
      "inputs": [
        {
          "internalType": "address",
          "name": "owner",
          "type": "address"
        }
      ],
      "name": "balanceOf",
      "outputs": [
        {
          "internalType": "uint256",
          "name": "",
          "type": "uint256"
        }
      ],
      "stateMutability": "view",
      "type": "function",
      "constant": true
    },
    {
      "inputs": [
        {
          "internalType": "uint256",
          "name": "tokenId",
          "type": "uint256"
        }
      ],
      "name": "burn",
      "outputs": [],
      "stateMutability": "nonpayable",
      "type": "function"
    },
    {
      "inputs": [
        {
          "internalType": "uint256",
          "name": "tokenId",
          "type": "uint256"
        }
      ],
      "name": "getApproved",
      "outputs": [
        {
          "internalType": "address",
          "name": "",
          "type": "address"
        }
      ],
      "stateMutability": "view",
      "type": "function",
      "constant": true
    },
    {
      "inputs": [
        {
          "internalType": "address",
          "name": "owner",
          "type": "address"
        },
        {
          "internalType": "address",
          "name": "operator",
          "type": "address"
        }
      ],
      "name": "isApprovedForAll",
      "outputs": [
        {
          "internalType": "bool",
          "name": "",
          "type": "bool"
        }
      ],
      "stateMutability": "view",
      "type": "function",
      "constant": true
    },
    {
      "inputs": [],
      "name": "name",
      "outputs": [
        {
          "internalType": "string",
          "name": "",
          "type": "string"
        }
      ],
      "stateMutability": "view",
      "type": "function",
      "constant": true
    },
    {
      "inputs": [],
      "name": "owner",
      "outputs": [
        {
          "internalType": "address",
          "name": "",
          "type": "address"
        }
      ],
      "stateMutability": "view",
      "type": "function",
      "constant": true
    },
    {
      "inputs": [
        {
          "internalType": "uint256",
          "name": "tokenId",
          "type": "uint256"
        }
      ],
      "name": "ownerOf",
      "outputs": [
        {
          "internalType": "address",
          "name": "",
          "type": "address"
        }
      ],
      "stateMutability": "view",
      "type": "function",
      "constant": true
    },
    {
      "inputs": [],
      "name": "renounceOwnership",
      "outputs": [],
      "stateMutability": "nonpayable",
      "type": "function"
    },
    {
      "inputs": [
        {
          "internalType": "address",
          "name": "from",
          "type": "address"
        },
        {
          "internalType": "address",
          "name": "to",
          "type": "address"
        },
        {
          "internalType": "uint256",
          "name": "tokenId",
          "type": "uint256"
        }
      ],
      "name": "safeTransferFrom",
      "outputs": [],
      "stateMutability": "nonpayable",
      "type": "function"
    },
    {
      "inputs": [
        {
          "internalType": "address",
          "name": "from",
          "type": "address"
        },
        {
          "internalType": "address",
          "name": "to",
          "type": "address"
        },
        {
          "internalType": "uint256",
          "name": "tokenId",
          "type": "uint256"
        },
        {
          "internalType": "bytes",
          "name": "_data",
          "type": "bytes"
        }
      ],
      "name": "safeTransferFrom",
      "outputs": [],
      "stateMutability": "nonpayable",
      "type": "function"
    },
    {
      "inputs": [
        {
          "internalType": "address",
          "name": "operator",
          "type": "address"
        },
        {
          "internalType": "bool",
          "name": "approved",
          "type": "bool"
        }
      ],
      "name": "setApprovalForAll",
      "outputs": [],
      "stateMutability": "nonpayable",
      "type": "function"
    },
    {
      "inputs": [],
      "name": "symbol",
      "outputs": [
        {
          "internalType": "string",
          "name": "",
          "type": "string"
        }
      ],
      "stateMutability": "view",
      "type": "function",
      "constant": true
    },
    {
      "inputs": [
        {
          "internalType": "uint256",
          "name": "index",
          "type": "uint256"
        }
      ],
      "name": "tokenByIndex",
      "outputs": [
        {
          "internalType": "uint256",
          "name": "",
          "type": "uint256"
        }
      ],
      "stateMutability": "view",
      "type": "function",
      "constant": true
    },
    {
      "inputs": [
        {
          "internalType": "address",
          "name": "owner",
          "type": "address"
        },
        {
          "internalType": "uint256",
          "name": "index",
          "type": "uint256"
        }
      ],
      "name": "tokenOfOwnerByIndex",
      "outputs": [
        {
          "internalType": "uint256",
          "name": "",
          "type": "uint256"
        }
      ],
      "stateMutability": "view",
      "type": "function",
      "constant": true
    },
    {
      "inputs": [],
      "name": "totalSupply",
      "outputs": [
        {
          "internalType": "uint256",
          "name": "",
          "type": "uint256"
        }
      ],
      "stateMutability": "view",
      "type": "function",
      "constant": true
    },
    {
      "inputs": [
        {
          "internalType": "address",
          "name": "from",
          "type": "address"
        },
        {
          "internalType": "address",
          "name": "to",
          "type": "address"
        },
        {
          "internalType": "uint256",
          "name": "tokenId",
          "type": "uint256"
        }
      ],
      "name": "transferFrom",
      "outputs": [],
      "stateMutability": "nonpayable",
      "type": "function"
    },
    {
      "inputs": [
        {
          "internalType": "address",
          "name": "newOwner",
          "type": "address"
        }
      ],
      "name": "transferOwnership",
      "outputs": [],
      "stateMutability": "nonpayable",
      "type": "function"
    },
    {
      "inputs": [
        {
          "internalType": "uint256",
          "name": "tokenId",
          "type": "uint256"
        }
      ],
      "name": "tokenURI",
      "outputs": [
        {
          "internalType": "string",
          "name": "",
          "type": "string"
        }
      ],
      "stateMutability": "view",
      "type": "function",
      "constant": true
    },
    {
      "inputs": [
        {
          "internalType": "bytes4",
          "name": "interfaceId",
          "type": "bytes4"
        }
      ],
      "name": "supportsInterface",
      "outputs": [
        {
          "internalType": "bool",
          "name": "",
          "type": "bool"
        }
      ],
      "stateMutability": "view",
      "type": "function",
      "constant": true
    },
    {
      "inputs": [
        {
          "internalType": "address",
          "name": "to",
          "type": "address"
        },
        {
          "internalType": "uint256",
          "name": "tokenId",
          "type": "uint256"
        }
      ],
      "name": "safeMint",
      "outputs": [],
      "stateMutability": "nonpayable",
      "type": "function"
    }
  ],
  "bytecode": "0x60806040523480156200001157600080fd5b506040518060400160405280600881526020017f5472756553686f740000000000000000000000000000000000000000000000008152506040518060400160405280600481526020017f547275650000000000000000000000000000000000000000000000000000000081525081600090805190602001906200009692919062000171565b508060019080519060200190620000af92919062000171565b5050506000620000c46200016960201b60201c565b905080600b60006101000a81548173ffffffffffffffffffffffffffffffffffffffff021916908373ffffffffffffffffffffffffffffffffffffffff1602179055508073ffffffffffffffffffffffffffffffffffffffff16600073ffffffffffffffffffffffffffffffffffffffff167f8be0079c531659141344cd1fd0a4f28419497f9722a3daafe3b4186f6b6457e060405160405180910390a35062000286565b600033905090565b8280546200017f9062000221565b90600052602060002090601f016020900481019282620001a35760008555620001ef565b82601f10620001be57805160ff1916838001178555620001ef565b82800160010185558215620001ef579182015b82811115620001ee578251825591602001919060010190620001d1565b5b509050620001fe919062000202565b5090565b5b808211156200021d57600081600090555060010162000203565b5090565b600060028204905060018216806200023a57607f821691505b6020821081141562000251576200025062000257565b5b50919050565b7f4e487b7100000000000000000000000000000000000000000000000000000000600052602260045260246000fd5b61392d80620002966000396000f3fe608060405234801561001057600080fd5b50600436106101375760003560e01c80636352211e116100b8578063a14481941161007c578063a14481941461034e578063a22cb4651461036a578063b88d4fde14610386578063c87b56dd146103a2578063e985e9c5146103d2578063f2fde38b1461040257610137565b80636352211e146102a857806370a08231146102d8578063715018a6146103085780638da5cb5b1461031257806395d89b411461033057610137565b806323b872dd116100ff57806323b872dd146101f45780632f745c591461021057806342842e0e1461024057806342966c681461025c5780634f6ccce71461027857610137565b806301ffc9a71461013c57806306fdde031461016c578063081812fc1461018a578063095ea7b3146101ba57806318160ddd146101d6575b600080fd5b610156600480360381019061015191906127e9565b61041e565b6040516101639190612c7b565b60405180910390f35b610174610430565b6040516101819190612c96565b60405180910390f35b6101a4600480360381019061019f919061283b565b6104c2565b6040516101b19190612c14565b60405180910390f35b6101d460048036038101906101cf91906127ad565b610547565b005b6101de61065f565b6040516101eb9190612f38565b60405180910390f35b61020e600480360381019061020991906126a7565b61066c565b005b61022a600480360381019061022591906127ad565b6106cc565b6040516102379190612f38565b60405180910390f35b61025a600480360381019061025591906126a7565b610771565b005b6102766004803603810190610271919061283b565b610791565b005b610292600480360381019061028d919061283b565b6107ed565b60405161029f9190612f38565b60405180910390f35b6102c260048036038101906102bd919061283b565b610884565b6040516102cf9190612c14565b60405180910390f35b6102f260048036038101906102ed9190612642565b610936565b6040516102ff9190612f38565b60405180910390f35b6103106109ee565b005b61031a610b2b565b6040516103279190612c14565b60405180910390f35b610338610b55565b6040516103459190612c96565b60405180910390f35b610368600480360381019061036391906127ad565b610be7565b005b610384600480360381019061037f9190612771565b610c71565b005b6103a0600480360381019061039b91906126f6565b610df2565b005b6103bc60048036038101906103b7919061283b565b610e54565b6040516103c99190612c96565b60405180910390f35b6103ec60048036038101906103e7919061266b565b610e66565b6040516103f99190612c7b565b60405180910390f35b61041c60048036038101906104179190612642565b610efa565b005b6000610429826110a6565b9050919050565b60606000805461043f9061315d565b80601f016020809104026020016040519081016040528092919081815260200182805461046b9061315d565b80156104b85780601f1061048d576101008083540402835291602001916104b8565b820191906000526020600020905b81548152906001019060200180831161049b57829003601f168201915b5050505050905090565b60006104cd82611120565b61050c576040517f08c379a000000000000000000000000000000000000000000000000000000000815260040161050390612e38565b60405180910390fd5b6004600083815260200190815260200160002060009054906101000a900473ffffffffffffffffffffffffffffffffffffffff169050919050565b600061055282610884565b90508073ffffffffffffffffffffffffffffffffffffffff168373ffffffffffffffffffffffffffffffffffffffff1614156105c3576040517f08c379a00000000000000000000000000000000000000000000000000000000081526004016105ba90612eb8565b60405180910390fd5b8073ffffffffffffffffffffffffffffffffffffffff166105e261118c565b73ffffffffffffffffffffffffffffffffffffffff16148061061157506106108161060b61118c565b610e66565b5b610650576040517f08c379a000000000000000000000000000000000000000000000000000000000815260040161064790612d98565b60405180910390fd5b61065a8383611194565b505050565b6000600880549050905090565b61067d61067761118c565b8261124d565b6106bc576040517f08c379a00000000000000000000000000000000000000000000000000000000081526004016106b390612ed8565b60405180910390fd5b6106c783838361132b565b505050565b60006106d783610936565b8210610718576040517f08c379a000000000000000000000000000000000000000000000000000000000815260040161070f90612cb8565b60405180910390fd5b600660008473ffffffffffffffffffffffffffffffffffffffff1673ffffffffffffffffffffffffffffffffffffffff168152602001908152602001600020600083815260200190815260200160002054905092915050565b61078c83838360405180602001604052806000815250610df2565b505050565b6107a261079c61118c565b8261124d565b6107e1576040517f08c379a00000000000000000000000000000000000000000000000000000000081526004016107d890612f18565b60405180910390fd5b6107ea81611587565b50565b60006107f761065f565b8210610838576040517f08c379a000000000000000000000000000000000000000000000000000000000815260040161082f90612ef8565b60405180910390fd5b60088281548110610872577f4e487b7100000000000000000000000000000000000000000000000000000000600052603260045260246000fd5b90600052602060002001549050919050565b6000806002600084815260200190815260200160002060009054906101000a900473ffffffffffffffffffffffffffffffffffffffff169050600073ffffffffffffffffffffffffffffffffffffffff168173ffffffffffffffffffffffffffffffffffffffff16141561092d576040517f08c379a000000000000000000000000000000000000000000000000000000000815260040161092490612dd8565b60405180910390fd5b80915050919050565b60008073ffffffffffffffffffffffffffffffffffffffff168273ffffffffffffffffffffffffffffffffffffffff1614156109a7576040517f08c379a000000000000000000000000000000000000000000000000000000000815260040161099e90612db8565b60405180910390fd5b600360008373ffffffffffffffffffffffffffffffffffffffff1673ffffffffffffffffffffffffffffffffffffffff168152602001908152602001600020549050919050565b6109f661118c565b73ffffffffffffffffffffffffffffffffffffffff16610a14610b2b565b73ffffffffffffffffffffffffffffffffffffffff1614610a6a576040517f08c379a0000000000000000000000000000000000000000000000000000000008152600401610a6190612e58565b60405180910390fd5b600073ffffffffffffffffffffffffffffffffffffffff16600b60009054906101000a900473ffffffffffffffffffffffffffffffffffffffff1673ffffffffffffffffffffffffffffffffffffffff167f8be0079c531659141344cd1fd0a4f28419497f9722a3daafe3b4186f6b6457e060405160405180910390a36000600b60006101000a81548173ffffffffffffffffffffffffffffffffffffffff021916908373ffffffffffffffffffffffffffffffffffffffff160217905550565b6000600b60009054906101000a900473ffffffffffffffffffffffffffffffffffffffff16905090565b606060018054610b649061315d565b80601f0160208091040260200160405190810160405280929190818152602001828054610b909061315d565b8015610bdd5780601f10610bb257610100808354040283529160200191610bdd565b820191906000526020600020905b815481529060010190602001808311610bc057829003601f168201915b5050505050905090565b610bef61118c565b73ffffffffffffffffffffffffffffffffffffffff16610c0d610b2b565b73ffffffffffffffffffffffffffffffffffffffff1614610c63576040517f08c379a0000000000000000000000000000000000000000000000000000000008152600401610c5a90612e58565b60405180910390fd5b610c6d8282611593565b5050565b610c7961118c565b73ffffffffffffffffffffffffffffffffffffffff168273ffffffffffffffffffffffffffffffffffffffff161415610ce7576040517f08c379a0000000000000000000000000000000000000000000000000000000008152600401610cde90612d58565b60405180910390fd5b8060056000610cf461118c565b73ffffffffffffffffffffffffffffffffffffffff1673ffffffffffffffffffffffffffffffffffffffff16815260200190815260200160002060008473ffffffffffffffffffffffffffffffffffffffff1673ffffffffffffffffffffffffffffffffffffffff16815260200190815260200160002060006101000a81548160ff0219169083151502179055508173ffffffffffffffffffffffffffffffffffffffff16610da161118c565b73ffffffffffffffffffffffffffffffffffffffff167f17307eab39ab6107e8899845ad3d59bd9653f200f220920489ca2b5937696c3183604051610de69190612c7b565b60405180910390a35050565b610e03610dfd61118c565b8361124d565b610e42576040517f08c379a0000000000000000000000000000000000000000000000000000000008152600401610e3990612ed8565b60405180910390fd5b610e4e848484846115b1565b50505050565b6060610e5f8261160d565b9050919050565b6000600560008473ffffffffffffffffffffffffffffffffffffffff1673ffffffffffffffffffffffffffffffffffffffff16815260200190815260200160002060008373ffffffffffffffffffffffffffffffffffffffff1673ffffffffffffffffffffffffffffffffffffffff16815260200190815260200160002060009054906101000a900460ff16905092915050565b610f0261118c565b73ffffffffffffffffffffffffffffffffffffffff16610f20610b2b565b73ffffffffffffffffffffffffffffffffffffffff1614610f76576040517f08c379a0000000000000000000000000000000000000000000000000000000008152600401610f6d90612e58565b60405180910390fd5b600073ffffffffffffffffffffffffffffffffffffffff168173ffffffffffffffffffffffffffffffffffffffff161415610fe6576040517f08c379a0000000000000000000000000000000000000000000000000000000008152600401610fdd90612cf8565b60405180910390fd5b8073ffffffffffffffffffffffffffffffffffffffff16600b60009054906101000a900473ffffffffffffffffffffffffffffffffffffffff1673ffffffffffffffffffffffffffffffffffffffff167f8be0079c531659141344cd1fd0a4f28419497f9722a3daafe3b4186f6b6457e060405160405180910390a380600b60006101000a81548173ffffffffffffffffffffffffffffffffffffffff021916908373ffffffffffffffffffffffffffffffffffffffff16021790555050565b60007f780e9d63000000000000000000000000000000000000000000000000000000007bffffffffffffffffffffffffffffffffffffffffffffffffffffffff1916827bffffffffffffffffffffffffffffffffffffffffffffffffffffffff1916148061111957506111188261175f565b5b9050919050565b60008073ffffffffffffffffffffffffffffffffffffffff166002600084815260200190815260200160002060009054906101000a900473ffffffffffffffffffffffffffffffffffffffff1673ffffffffffffffffffffffffffffffffffffffff1614159050919050565b600033905090565b816004600083815260200190815260200160002060006101000a81548173ffffffffffffffffffffffffffffffffffffffff021916908373ffffffffffffffffffffffffffffffffffffffff160217905550808273ffffffffffffffffffffffffffffffffffffffff1661120783610884565b73ffffffffffffffffffffffffffffffffffffffff167f8c5be1e5ebec7d5bd14f71427d1e84f3dd0314c0f7b2291e5b200ac8c7c3b92560405160405180910390a45050565b600061125882611120565b611297576040517f08c379a000000000000000000000000000000000000000000000000000000000815260040161128e90612d78565b60405180910390fd5b60006112a283610884565b90508073ffffffffffffffffffffffffffffffffffffffff168473ffffffffffffffffffffffffffffffffffffffff16148061131157508373ffffffffffffffffffffffffffffffffffffffff166112f9846104c2565b73ffffffffffffffffffffffffffffffffffffffff16145b8061132257506113218185610e66565b5b91505092915050565b8273ffffffffffffffffffffffffffffffffffffffff1661134b82610884565b73ffffffffffffffffffffffffffffffffffffffff16146113a1576040517f08c379a000000000000000000000000000000000000000000000000000000000815260040161139890612e78565b60405180910390fd5b600073ffffffffffffffffffffffffffffffffffffffff168273ffffffffffffffffffffffffffffffffffffffff161415611411576040517f08c379a000000000000000000000000000000000000000000000000000000000815260040161140890612d38565b60405180910390fd5b61141c838383611841565b611427600082611194565b6001600360008573ffffffffffffffffffffffffffffffffffffffff1673ffffffffffffffffffffffffffffffffffffffff16815260200190815260200160002060008282546114779190613073565b925050819055506001600360008473ffffffffffffffffffffffffffffffffffffffff1673ffffffffffffffffffffffffffffffffffffffff16815260200190815260200160002060008282546114ce9190612fec565b92505081905550816002600083815260200190815260200160002060006101000a81548173ffffffffffffffffffffffffffffffffffffffff021916908373ffffffffffffffffffffffffffffffffffffffff160217905550808273ffffffffffffffffffffffffffffffffffffffff168473ffffffffffffffffffffffffffffffffffffffff167fddf252ad1be2c89b69c2b068fc378daa952ba7f163c4a11628f55a4df523b3ef60405160405180910390a4505050565b61159081611851565b50565b6115ad8282604051806020016040528060008152506118a4565b5050565b6115bc84848461132b565b6115c8848484846118ff565b611607576040517f08c379a00000000000000000000000000000000000000000000000000000000081526004016115fe90612cd8565b60405180910390fd5b50505050565b606061161882611120565b611657576040517f08c379a000000000000000000000000000000000000000000000000000000000815260040161164e90612e18565b60405180910390fd5b6000600a600084815260200190815260200160002080546116779061315d565b80601f01602080910402602001604051908101604052809291908181526020018280546116a39061315d565b80156116f05780601f106116c5576101008083540402835291602001916116f0565b820191906000526020600020905b8154815290600101906020018083116116d357829003601f168201915b505050505090506000611701611a96565b905060008151141561171757819250505061175a565b60008251111561174c578082604051602001611734929190612bf0565b6040516020818303038152906040529250505061175a565b61175584611ad3565b925050505b919050565b60007f80ac58cd000000000000000000000000000000000000000000000000000000007bffffffffffffffffffffffffffffffffffffffffffffffffffffffff1916827bffffffffffffffffffffffffffffffffffffffffffffffffffffffff1916148061182a57507f5b5e139f000000000000000000000000000000000000000000000000000000007bffffffffffffffffffffffffffffffffffffffffffffffffffffffff1916827bffffffffffffffffffffffffffffffffffffffffffffffffffffffff1916145b8061183a575061183982611b7a565b5b9050919050565b61184c838383611be4565b505050565b61185a81611cf8565b6000600a6000838152602001908152602001600020805461187a9061315d565b9050146118a157600a600082815260200190815260200160002060006118a09190612514565b5b50565b6118ae8383611e09565b6118bb60008484846118ff565b6118fa576040517f08c379a00000000000000000000000000000000000000000000000000000000081526004016118f190612cd8565b60405180910390fd5b505050565b60006119208473ffffffffffffffffffffffffffffffffffffffff16611fd7565b15611a89578373ffffffffffffffffffffffffffffffffffffffff1663150b7a0261194961118c565b8786866040518563ffffffff1660e01b815260040161196b9493929190612c2f565b602060405180830381600087803b15801561198557600080fd5b505af19250505080156119b657506040513d601f19601f820116820180604052508101906119b39190612812565b60015b611a39573d80600081146119e6576040519150601f19603f3d011682016040523d82523d6000602084013e6119eb565b606091505b50600081511415611a31576040517f08c379a0000000000000000000000000000000000000000000000000000000008152600401611a2890612cd8565b60405180910390fd5b805181602001fd5b63150b7a0260e01b7bffffffffffffffffffffffffffffffffffffffffffffffffffffffff1916817bffffffffffffffffffffffffffffffffffffffffffffffffffffffff191614915050611a8e565b600190505b949350505050565b60606040518060400160405280600781526020017f697066733a2f2f00000000000000000000000000000000000000000000000000815250905090565b6060611ade82611120565b611b1d576040517f08c379a0000000000000000000000000000000000000000000000000000000008152600401611b1490612e98565b60405180910390fd5b6000611b27611a96565b90506000815111611b475760405180602001604052806000815250611b72565b80611b5184611fea565b604051602001611b62929190612bf0565b6040516020818303038152906040525b915050919050565b60007f01ffc9a7000000000000000000000000000000000000000000000000000000007bffffffffffffffffffffffffffffffffffffffffffffffffffffffff1916827bffffffffffffffffffffffffffffffffffffffffffffffffffffffff1916149050919050565b611bef838383612197565b600073ffffffffffffffffffffffffffffffffffffffff168373ffffffffffffffffffffffffffffffffffffffff161415611c3257611c2d8161219c565b611c71565b8173ffffffffffffffffffffffffffffffffffffffff168373ffffffffffffffffffffffffffffffffffffffff1614611c7057611c6f83826121e5565b5b5b600073ffffffffffffffffffffffffffffffffffffffff168273ffffffffffffffffffffffffffffffffffffffff161415611cb457611caf81612352565b611cf3565b8273ffffffffffffffffffffffffffffffffffffffff168273ffffffffffffffffffffffffffffffffffffffff1614611cf257611cf18282612495565b5b5b505050565b6000611d0382610884565b9050611d1181600084611841565b611d1c600083611194565b6001600360008373ffffffffffffffffffffffffffffffffffffffff1673ffffffffffffffffffffffffffffffffffffffff1681526020019081526020016000206000828254611d6c9190613073565b925050819055506002600083815260200190815260200160002060006101000a81549073ffffffffffffffffffffffffffffffffffffffff021916905581600073ffffffffffffffffffffffffffffffffffffffff168273ffffffffffffffffffffffffffffffffffffffff167fddf252ad1be2c89b69c2b068fc378daa952ba7f163c4a11628f55a4df523b3ef60405160405180910390a45050565b600073ffffffffffffffffffffffffffffffffffffffff168273ffffffffffffffffffffffffffffffffffffffff161415611e79576040517f08c379a0000000000000000000000000000000000000000000000000000000008152600401611e7090612df8565b60405180910390fd5b611e8281611120565b15611ec2576040517f08c379a0000000000000000000000000000000000000000000000000000000008152600401611eb990612d18565b60405180910390fd5b611ece60008383611841565b6001600360008473ffffffffffffffffffffffffffffffffffffffff1673ffffffffffffffffffffffffffffffffffffffff1681526020019081526020016000206000828254611f1e9190612fec565b92505081905550816002600083815260200190815260200160002060006101000a81548173ffffffffffffffffffffffffffffffffffffffff021916908373ffffffffffffffffffffffffffffffffffffffff160217905550808273ffffffffffffffffffffffffffffffffffffffff16600073ffffffffffffffffffffffffffffffffffffffff167fddf252ad1be2c89b69c2b068fc378daa952ba7f163c4a11628f55a4df523b3ef60405160405180910390a45050565b600080823b905060008111915050919050565b60606000821415612032576040518060400160405280600181526020017f30000000000000000000000000000000000000000000000000000000000000008152509050612192565b600082905060005b6000821461206457808061204d906131c0565b915050600a8261205d9190613042565b915061203a565b60008167ffffffffffffffff8111156120a6577f4e487b7100000000000000000000000000000000000000000000000000000000600052604160045260246000fd5b6040519080825280601f01601f1916602001820160405280156120d85781602001600182028036833780820191505090505b5090505b6000851461218b576001826120f19190613073565b9150600a856121009190613209565b603061210c9190612fec565b60f81b818381518110612148577f4e487b7100000000000000000000000000000000000000000000000000000000600052603260045260246000fd5b60200101907effffffffffffffffffffffffffffffffffffffffffffffffffffffffffffff1916908160001a905350600a856121849190613042565b94506120dc565b8093505050505b919050565b505050565b6008805490506009600083815260200190815260200160002081905550600881908060018154018082558091505060019003906000526020600020016000909190919091505550565b600060016121f284610936565b6121fc9190613073565b90506000600760008481526020019081526020016000205490508181146122e1576000600660008673ffffffffffffffffffffffffffffffffffffffff1673ffffffffffffffffffffffffffffffffffffffff168152602001908152602001600020600084815260200190815260200160002054905080600660008773ffffffffffffffffffffffffffffffffffffffff1673ffffffffffffffffffffffffffffffffffffffff168152602001908152602001600020600084815260200190815260200160002081905550816007600083815260200190815260200160002081905550505b6007600084815260200190815260200160002060009055600660008573ffffffffffffffffffffffffffffffffffffffff1673ffffffffffffffffffffffffffffffffffffffff16815260200190815260200160002060008381526020019081526020016000206000905550505050565b600060016008805490506123669190613073565b90506000600960008481526020019081526020016000205490506000600883815481106123bc577f4e487b7100000000000000000000000000000000000000000000000000000000600052603260045260246000fd5b906000526020600020015490508060088381548110612404577f4e487b7100000000000000000000000000000000000000000000000000000000600052603260045260246000fd5b906000526020600020018190555081600960008381526020019081526020016000208190555060096000858152602001908152602001600020600090556008805480612479577f4e487b7100000000000000000000000000000000000000000000000000000000600052603160045260246000fd5b6001900381819060005260206000200160009055905550505050565b60006124a083610936565b905081600660008573ffffffffffffffffffffffffffffffffffffffff1673ffffffffffffffffffffffffffffffffffffffff168152602001908152602001600020600083815260200190815260200160002081905550806007600084815260200190815260200160002081905550505050565b5080546125209061315d565b6000825580601f106125325750612551565b601f0160209004906000526020600020908101906125509190612554565b5b50565b5b8082111561256d576000816000905550600101612555565b5090565b600061258461257f84612f78565b612f53565b90508281526020810184848401111561259c57600080fd5b6125a784828561311b565b509392505050565b6000813590506125be8161389b565b92915050565b6000813590506125d3816138b2565b92915050565b6000813590506125e8816138c9565b92915050565b6000815190506125fd816138c9565b92915050565b600082601f83011261261457600080fd5b8135612624848260208601612571565b91505092915050565b60008135905061263c816138e0565b92915050565b60006020828403121561265457600080fd5b6000612662848285016125af565b91505092915050565b6000806040838503121561267e57600080fd5b600061268c858286016125af565b925050602061269d858286016125af565b9150509250929050565b6000806000606084860312156126bc57600080fd5b60006126ca868287016125af565b93505060206126db868287016125af565b92505060406126ec8682870161262d565b9150509250925092565b6000806000806080858703121561270c57600080fd5b600061271a878288016125af565b945050602061272b878288016125af565b935050604061273c8782880161262d565b925050606085013567ffffffffffffffff81111561275957600080fd5b61276587828801612603565b91505092959194509250565b6000806040838503121561278457600080fd5b6000612792858286016125af565b92505060206127a3858286016125c4565b9150509250929050565b600080604083850312156127c057600080fd5b60006127ce858286016125af565b92505060206127df8582860161262d565b9150509250929050565b6000602082840312156127fb57600080fd5b6000612809848285016125d9565b91505092915050565b60006020828403121561282457600080fd5b6000612832848285016125ee565b91505092915050565b60006020828403121561284d57600080fd5b600061285b8482850161262d565b91505092915050565b61286d816130a7565b82525050565b61287c816130b9565b82525050565b600061288d82612fa9565b6128978185612fbf565b93506128a781856020860161312a565b6128b0816132f6565b840191505092915050565b60006128c682612fb4565b6128d08185612fd0565b93506128e081856020860161312a565b6128e9816132f6565b840191505092915050565b60006128ff82612fb4565b6129098185612fe1565b935061291981856020860161312a565b80840191505092915050565b6000612932602b83612fd0565b915061293d82613307565b604082019050919050565b6000612955603283612fd0565b915061296082613356565b604082019050919050565b6000612978602683612fd0565b9150612983826133a5565b604082019050919050565b600061299b601c83612fd0565b91506129a6826133f4565b602082019050919050565b60006129be602483612fd0565b91506129c98261341d565b604082019050919050565b60006129e1601983612fd0565b91506129ec8261346c565b602082019050919050565b6000612a04602c83612fd0565b9150612a0f82613495565b604082019050919050565b6000612a27603883612fd0565b9150612a32826134e4565b604082019050919050565b6000612a4a602a83612fd0565b9150612a5582613533565b604082019050919050565b6000612a6d602983612fd0565b9150612a7882613582565b604082019050919050565b6000612a90602083612fd0565b9150612a9b826135d1565b602082019050919050565b6000612ab3603183612fd0565b9150612abe826135fa565b604082019050919050565b6000612ad6602c83612fd0565b9150612ae182613649565b604082019050919050565b6000612af9602083612fd0565b9150612b0482613698565b602082019050919050565b6000612b1c602983612fd0565b9150612b27826136c1565b604082019050919050565b6000612b3f602f83612fd0565b9150612b4a82613710565b604082019050919050565b6000612b62602183612fd0565b9150612b6d8261375f565b604082019050919050565b6000612b85603183612fd0565b9150612b90826137ae565b604082019050919050565b6000612ba8602c83612fd0565b9150612bb3826137fd565b604082019050919050565b6000612bcb603083612fd0565b9150612bd68261384c565b604082019050919050565b612bea81613111565b82525050565b6000612bfc82856128f4565b9150612c0882846128f4565b91508190509392505050565b6000602082019050612c296000830184612864565b92915050565b6000608082019050612c446000830187612864565b612c516020830186612864565b612c5e6040830185612be1565b8181036060830152612c708184612882565b905095945050505050565b6000602082019050612c906000830184612873565b92915050565b60006020820190508181036000830152612cb081846128bb565b905092915050565b60006020820190508181036000830152612cd181612925565b9050919050565b60006020820190508181036000830152612cf181612948565b9050919050565b60006020820190508181036000830152612d118161296b565b9050919050565b60006020820190508181036000830152612d318161298e565b9050919050565b60006020820190508181036000830152612d51816129b1565b9050919050565b60006020820190508181036000830152612d71816129d4565b9050919050565b60006020820190508181036000830152612d91816129f7565b9050919050565b60006020820190508181036000830152612db181612a1a565b9050919050565b60006020820190508181036000830152612dd181612a3d565b9050919050565b60006020820190508181036000830152612df181612a60565b9050919050565b60006020820190508181036000830152612e1181612a83565b9050919050565b60006020820190508181036000830152612e3181612aa6565b9050919050565b60006020820190508181036000830152612e5181612ac9565b9050919050565b60006020820190508181036000830152612e7181612aec565b9050919050565b60006020820190508181036000830152612e9181612b0f565b9050919050565b60006020820190508181036000830152612eb181612b32565b9050919050565b60006020820190508181036000830152612ed181612b55565b9050919050565b60006020820190508181036000830152612ef181612b78565b9050919050565b60006020820190508181036000830152612f1181612b9b565b9050919050565b60006020820190508181036000830152612f3181612bbe565b9050919050565b6000602082019050612f4d6000830184612be1565b92915050565b6000612f5d612f6e565b9050612f69828261318f565b919050565b6000604051905090565b600067ffffffffffffffff821115612f9357612f926132c7565b5b612f9c826132f6565b9050602081019050919050565b600081519050919050565b600081519050919050565b600082825260208201905092915050565b600082825260208201905092915050565b600081905092915050565b6000612ff782613111565b915061300283613111565b9250827fffffffffffffffffffffffffffffffffffffffffffffffffffffffffffffffff038211156130375761303661323a565b5b828201905092915050565b600061304d82613111565b915061305883613111565b92508261306857613067613269565b5b828204905092915050565b600061307e82613111565b915061308983613111565b92508282101561309c5761309b61323a565b5b828203905092915050565b60006130b2826130f1565b9050919050565b60008115159050919050565b60007fffffffff0000000000000000000000000000000000000000000000000000000082169050919050565b600073ffffffffffffffffffffffffffffffffffffffff82169050919050565b6000819050919050565b82818337600083830152505050565b60005b8381101561314857808201518184015260208101905061312d565b83811115613157576000848401525b50505050565b6000600282049050600182168061317557607f821691505b6020821081141561318957613188613298565b5b50919050565b613198826132f6565b810181811067ffffffffffffffff821117156131b7576131b66132c7565b5b80604052505050565b60006131cb82613111565b91507fffffffffffffffffffffffffffffffffffffffffffffffffffffffffffffffff8214156131fe576131fd61323a565b5b600182019050919050565b600061321482613111565b915061321f83613111565b92508261322f5761322e613269565b5b828206905092915050565b7f4e487b7100000000000000000000000000000000000000000000000000000000600052601160045260246000fd5b7f4e487b7100000000000000000000000000000000000000000000000000000000600052601260045260246000fd5b7f4e487b7100000000000000000000000000000000000000000000000000000000600052602260045260246000fd5b7f4e487b7100000000000000000000000000000000000000000000000000000000600052604160045260246000fd5b6000601f19601f8301169050919050565b7f455243373231456e756d657261626c653a206f776e657220696e646578206f7560008201527f74206f6620626f756e6473000000000000000000000000000000000000000000602082015250565b7f4552433732313a207472616e7366657220746f206e6f6e20455243373231526560008201527f63656976657220696d706c656d656e7465720000000000000000000000000000602082015250565b7f4f776e61626c653a206e6577206f776e657220697320746865207a65726f206160008201527f6464726573730000000000000000000000000000000000000000000000000000602082015250565b7f4552433732313a20746f6b656e20616c7265616479206d696e74656400000000600082015250565b7f4552433732313a207472616e7366657220746f20746865207a65726f2061646460008201527f7265737300000000000000000000000000000000000000000000000000000000602082015250565b7f4552433732313a20617070726f766520746f2063616c6c657200000000000000600082015250565b7f4552433732313a206f70657261746f7220717565727920666f72206e6f6e657860008201527f697374656e7420746f6b656e0000000000000000000000000000000000000000602082015250565b7f4552433732313a20617070726f76652063616c6c6572206973206e6f74206f7760008201527f6e6572206e6f7220617070726f76656420666f7220616c6c0000000000000000602082015250565b7f4552433732313a2062616c616e636520717565727920666f7220746865207a6560008201527f726f206164647265737300000000000000000000000000000000000000000000602082015250565b7f4552433732313a206f776e657220717565727920666f72206e6f6e657869737460008201527f656e7420746f6b656e0000000000000000000000000000000000000000000000602082015250565b7f4552433732313a206d696e7420746f20746865207a65726f2061646472657373600082015250565b7f45524337323155524953746f726167653a2055524920717565727920666f722060008201527f6e6f6e6578697374656e7420746f6b656e000000000000000000000000000000602082015250565b7f4552433732313a20617070726f76656420717565727920666f72206e6f6e657860008201527f697374656e7420746f6b656e0000000000000000000000000000000000000000602082015250565b7f4f776e61626c653a2063616c6c6572206973206e6f7420746865206f776e6572600082015250565b7f4552433732313a207472616e73666572206f6620746f6b656e2074686174206960008201527f73206e6f74206f776e0000000000000000000000000000000000000000000000602082015250565b7f4552433732314d657461646174613a2055524920717565727920666f72206e6f60008201527f6e6578697374656e7420746f6b656e0000000000000000000000000000000000602082015250565b7f4552433732313a20617070726f76616c20746f2063757272656e74206f776e6560008201527f7200000000000000000000000000000000000000000000000000000000000000602082015250565b7f4552433732313a207472616e736665722063616c6c6572206973206e6f74206f60008201527f776e6572206e6f7220617070726f766564000000000000000000000000000000602082015250565b7f455243373231456e756d657261626c653a20676c6f62616c20696e646578206f60008201527f7574206f6620626f756e64730000000000000000000000000000000000000000602082015250565b7f4552433732314275726e61626c653a2063616c6c6572206973206e6f74206f7760008201527f6e6572206e6f7220617070726f76656400000000000000000000000000000000602082015250565b6138a4816130a7565b81146138af57600080fd5b50565b6138bb816130b9565b81146138c657600080fd5b50565b6138d2816130c5565b81146138dd57600080fd5b50565b6138e981613111565b81146138f457600080fd5b5056fea26469706673582212201da84764b9e4c98515b5ae01ef4f0ad6d6e04571037f02652b4a3218baededae64736f6c63430008030033",
  "immutableReferences": {},
  "source": "// SPDX-License-Identifier: MIT\npragma solidity ^0.8.0;\n\nimport \"@openzeppelin/contracts/token/ERC721/ERC721.sol\";\nimport \"@openzeppelin/contracts/token/ERC721/extensions/ERC721Enumerable.sol\";\nimport \"@openzeppelin/contracts/token/ERC721/extensions/ERC721URIStorage.sol\";\nimport \"@openzeppelin/contracts/token/ERC721/extensions/ERC721Burnable.sol\";\nimport \"@openzeppelin/contracts/access/Ownable.sol\";\n\ncontract TrueShot is ERC721, ERC721Enumerable, ERC721URIStorage, ERC721Burnable, Ownable {\n    constructor() ERC721(\"TrueShot\", \"True\") {}\n\n    function _beforeTokenTransfer(address from, address to, uint256 tokenId)\n        internal\n        override(ERC721, ERC721Enumerable)\n    {\n        super._beforeTokenTransfer(from, to, tokenId);\n    }\n\n    function _burn(uint256 tokenId) internal override(ERC721, ERC721URIStorage) {\n        super._burn(tokenId);\n    }\n\n    function tokenURI(uint256 tokenId)\n        public\n        view\n        override(ERC721, ERC721URIStorage)\n        returns (string memory)\n    {\n        return super.tokenURI(tokenId);\n    }\n\n    function supportsInterface(bytes4 interfaceId)\n        public\n        view\n        override(ERC721, ERC721Enumerable)\n        returns (bool)\n    {\n        return super.supportsInterface(interfaceId);\n    }\n\n    function _baseURI() internal pure override returns (string memory) {\n        return \"ipfs://\";\n    }\n\n    function safeMint(address to, uint256 tokenId) public onlyOwner {\n        _safeMint(to, tokenId);\n    }\n}\n",
  "sourcePath": "/Users/donalfaulkner/Documents/GitHub/TrueShot/contracts/TrueShot.sol",
  "compiler": {
    "name": "solc",
    "version": "0.8.3+commit.8d00100c.Emscripten.clang"
  },
  "schemaVersion": "3.3.2",
  "updatedAt": "2021-04-07T16:51:43.871Z",
  "networkType": "ethereum",
  "devdoc": {
    "kind": "dev",
    "methods": {
      "approve(address,uint256)": {
        "details": "See {IERC721-approve}."
      },
      "balanceOf(address)": {
        "details": "See {IERC721-balanceOf}."
      },
      "burn(uint256)": {
        "details": "Burns `tokenId`. See {ERC721-_burn}. Requirements: - The caller must own `tokenId` or be an approved operator."
      },
      "getApproved(uint256)": {
        "details": "See {IERC721-getApproved}."
      },
      "isApprovedForAll(address,address)": {
        "details": "See {IERC721-isApprovedForAll}."
      },
      "name()": {
        "details": "See {IERC721Metadata-name}."
      },
      "owner()": {
        "details": "Returns the address of the current owner."
      },
      "ownerOf(uint256)": {
        "details": "See {IERC721-ownerOf}."
      },
      "renounceOwnership()": {
        "details": "Leaves the contract without owner. It will not be possible to call `onlyOwner` functions anymore. Can only be called by the current owner. NOTE: Renouncing ownership will leave the contract without an owner, thereby removing any functionality that is only available to the owner."
      },
      "safeTransferFrom(address,address,uint256)": {
        "details": "See {IERC721-safeTransferFrom}."
      },
      "safeTransferFrom(address,address,uint256,bytes)": {
        "details": "See {IERC721-safeTransferFrom}."
      },
      "setApprovalForAll(address,bool)": {
        "details": "See {IERC721-setApprovalForAll}."
      },
      "symbol()": {
        "details": "See {IERC721Metadata-symbol}."
      },
      "tokenByIndex(uint256)": {
        "details": "See {IERC721Enumerable-tokenByIndex}."
      },
      "tokenOfOwnerByIndex(address,uint256)": {
        "details": "See {IERC721Enumerable-tokenOfOwnerByIndex}."
      },
      "totalSupply()": {
        "details": "See {IERC721Enumerable-totalSupply}."
      },
      "transferFrom(address,address,uint256)": {
        "details": "See {IERC721-transferFrom}."
      },
      "transferOwnership(address)": {
        "details": "Transfers ownership of the contract to a new account (`newOwner`). Can only be called by the current owner."
      }
    },
    "version": 1
  },
  "userdoc": {
    "kind": "user",
    "methods": {},
    "version": 1
  }
}